{
  "abi": [
    {
      "anonymous": false,
      "inputs": [
        {
          "indexed": true,
          "internalType": "address",
          "name": "_from",
          "type": "address"
        },
        {
          "indexed": false,
          "internalType": "string",
          "name": "_message",
          "type": "string"
        },
        {
          "indexed": false,
          "internalType": "bool",
          "name": "_paid",
          "type": "bool"
        }
      ],
      "name": "NewMessage",
      "type": "event"
    },
    {
      "inputs": [],
      "name": "getMessages",
      "outputs": [
        {
          "components": [
            {
              "internalType": "string",
              "name": "message",
              "type": "string"
            },
            {
              "internalType": "address",
              "name": "from",
              "type": "address"
            }
          ],
          "internalType": "struct MessageBoard.Message[]",
          "name": "",
          "type": "tuple[]"
        }
      ],
      "stateMutability": "view",
      "type": "function"
    },
    {
      "inputs": [],
      "name": "getPaidMessages",
      "outputs": [
        {
          "components": [
            {
              "internalType": "string",
              "name": "message",
              "type": "string"
            },
            {
              "internalType": "address",
              "name": "from",
              "type": "address"
            }
          ],
          "internalType": "struct MessageBoard.Message[]",
          "name": "",
          "type": "tuple[]"
        }
      ],
      "stateMutability": "view",
      "type": "function"
    },
    {
      "inputs": [
        {
          "internalType": "string",
          "name": "str",
          "type": "string"
        },
        {
          "internalType": "bool",
          "name": "isPaid",
          "type": "bool"
        }
      ],
      "name": "writeMessage",
      "outputs": [],
      "stateMutability": "payable",
      "type": "function"
    }
  ],
  "bytecode": {
    "object": "0x608060405234801561001057600080fd5b50610784806100206000396000f3fe6080604052600436106100345760003560e01c80635ff6cbf314610039578063600fd5a81461006457806376b00d5014610079575b600080fd5b34801561004557600080fd5b5061004e61008e565b60405161005b9190610475565b60405180910390f35b61007761007236600461051f565b610192565b005b34801561008557600080fd5b5061004e610334565b60606000805480602002602001604051908101604052809291908181526020016000905b8282101561018957838290600052602060002090600202016040518060400160405290816000820180546100e5906105e1565b80601f0160208091040260200160405190810160405280929190818152602001828054610111906105e1565b801561015e5780601f106101335761010080835404028352916020019161015e565b820191906000526020600020905b81548152906001019060200180831161014157829003601f168201915b50505091835250506001918201546001600160a01b03166020918201529183529290920191016100b2565b50505050905090565b801561026c5767016345785d8a000034146101e55760405162461bcd60e51b815260206004820152600f60248201526e139bdd08195b9bdd59da08199d5b99608a1b604482015260640160405180910390fd5b60408051808201909152828152336020820152600180548082018255600091909152815160029091027fb10e2d527612073b26eecdfd717e6a320cf44b4afac2b0732d9fcbe2b7fa0cf60190819061023d908261066a565b5060209190910151600190910180546001600160a01b0319166001600160a01b039092169190911790556102ed565b6040805180820190915282815233602082015260008054600181018255908052815160029091027f290decd9548b62a8d60345a988386fc84ba6bc95484008f6362f93160ef3e563019081906102c2908261066a565b5060209190910151600190910180546001600160a01b0319166001600160a01b039092169190911790555b336001600160a01b03167f11d854a847402dc7fc3583984a37aa51c8df7af996216aff78a770d655ac45c8838360405161032892919061072a565b60405180910390a25050565b60606001805480602002602001604051908101604052809291908181526020016000905b82821015610189578382906000526020600020906002020160405180604001604052908160008201805461038b906105e1565b80601f01602080910402602001604051908101604052809291908181526020018280546103b7906105e1565b80156104045780601f106103d957610100808354040283529160200191610404565b820191906000526020600020905b8154815290600101906020018083116103e757829003601f168201915b50505091835250506001918201546001600160a01b0316602091820152918352929092019101610358565b6000815180845260005b8181101561045557602081850181015186830182015201610439565b506000602082860101526020601f19601f83011685010191505092915050565b60006020808301818452808551808352604092508286019150828160051b87010184880160005b838110156104e657888303603f19018552815180518785526104c08886018261042f565b918901516001600160a01b0316948901949094529487019492509086019060010161049c565b509098975050505050505050565b634e487b7160e01b600052604160045260246000fd5b8035801515811461051a57600080fd5b919050565b6000806040838503121561053257600080fd5b823567ffffffffffffffff8082111561054a57600080fd5b818501915085601f83011261055e57600080fd5b813581811115610570576105706104f4565b604051601f8201601f19908116603f01168101908382118183101715610598576105986104f4565b816040528281528860208487010111156105b157600080fd5b8260208601602083013760006020848301015280965050505050506105d86020840161050a565b90509250929050565b600181811c908216806105f557607f821691505b60208210810361061557634e487b7160e01b600052602260045260246000fd5b50919050565b601f82111561066557600081815260208120601f850160051c810160208610156106425750805b601f850160051c820191505b818110156106615782815560010161064e565b5050505b505050565b815167ffffffffffffffff811115610684576106846104f4565b6106988161069284546105e1565b8461061b565b602080601f8311600181146106cd57600084156106b55750858301515b600019600386901b1c1916600185901b178555610661565b600085815260208120601f198616915b828110156106fc578886015182559484019460019091019084016106dd565b508582101561071a5787850151600019600388901b60f8161c191681555b5050505050600190811b01905550565b60408152600061073d604083018561042f565b90508215156020830152939250505056fea2646970667358221220147886ed9c06a3d3e40f7a96c50fc137de24b3aecb733a42555867386ba8731464736f6c63430008140033",
    "linkReferences": {}
  },
  "methodIdentifiers": {
    "getMessages()": "5ff6cbf3",
    "getPaidMessages()": "76b00d50",
    "writeMessage(string,bool)": "600fd5a8"
  },
  "id": 18
}